{
  "contractName": "Bingo",
  "abi": [
    {
      "constant": true,
      "inputs": [
        {
          "name": "",
          "type": "uint256"
        }
      ],
      "name": "bets",
      "outputs": [
        {
          "name": "player",
          "type": "address"
        },
        {
          "name": "bet_number",
          "type": "uint256"
        },
        {
          "name": "bet_amount",
          "type": "uint256"
        },
        {
          "name": "result_number",
          "type": "uint256"
        },
        {
          "name": "win_amount",
          "type": "uint256"
        },
        {
          "name": "time",
          "type": "uint256"
        }
      ],
      "payable": false,
      "stateMutability": "view",
      "type": "function"
    },
    {
      "constant": true,
      "inputs": [],
      "name": "gameMinBet",
      "outputs": [
        {
          "name": "",
          "type": "uint256"
        }
      ],
      "payable": false,
      "stateMutability": "view",
      "type": "function"
    },
    {
      "constant": true,
      "inputs": [],
      "name": "profitWinRate",
      "outputs": [
        {
          "name": "",
          "type": "uint256"
        }
      ],
      "payable": false,
      "stateMutability": "view",
      "type": "function"
    },
    {
      "constant": false,
      "inputs": [],
      "name": "renounceOwnership",
      "outputs": [],
      "payable": false,
      "stateMutability": "nonpayable",
      "type": "function"
    },
    {
      "constant": true,
      "inputs": [],
      "name": "owner",
      "outputs": [
        {
          "name": "",
          "type": "address"
        }
      ],
      "payable": false,
      "stateMutability": "view",
      "type": "function"
    },
    {
      "constant": true,
      "inputs": [],
      "name": "isOwner",
      "outputs": [
        {
          "name": "",
          "type": "bool"
        }
      ],
      "payable": false,
      "stateMutability": "view",
      "type": "function"
    },
    {
      "constant": true,
      "inputs": [],
      "name": "gameMaxBet",
      "outputs": [
        {
          "name": "",
          "type": "uint256"
        }
      ],
      "payable": false,
      "stateMutability": "view",
      "type": "function"
    },
    {
      "constant": true,
      "inputs": [],
      "name": "currentBet",
      "outputs": [
        {
          "name": "",
          "type": "uint256"
        }
      ],
      "payable": false,
      "stateMutability": "view",
      "type": "function"
    },
    {
      "constant": false,
      "inputs": [
        {
          "name": "newOwner",
          "type": "address"
        }
      ],
      "name": "transferOwnership",
      "outputs": [],
      "payable": false,
      "stateMutability": "nonpayable",
      "type": "function"
    },
    {
      "inputs": [],
      "payable": false,
      "stateMutability": "nonpayable",
      "type": "constructor"
    },
    {
      "payable": true,
      "stateMutability": "payable",
      "type": "fallback"
    },
    {
      "anonymous": false,
      "inputs": [
        {
          "indexed": true,
          "name": "player",
          "type": "address"
        },
        {
          "indexed": false,
          "name": "bet_number",
          "type": "uint256"
        },
        {
          "indexed": false,
          "name": "bet_amount",
          "type": "uint256"
        },
        {
          "indexed": false,
          "name": "result_number",
          "type": "uint256"
        },
        {
          "indexed": false,
          "name": "win_amount",
          "type": "uint256"
        },
        {
          "indexed": false,
          "name": "id",
          "type": "uint256"
        }
      ],
      "name": "UserBet",
      "type": "event"
    },
    {
      "anonymous": false,
      "inputs": [
        {
          "indexed": true,
          "name": "previousOwner",
          "type": "address"
        },
        {
          "indexed": true,
          "name": "newOwner",
          "type": "address"
        }
      ],
      "name": "OwnershipTransferred",
      "type": "event"
    },
    {
      "constant": true,
      "inputs": [],
      "name": "getRandomFactor",
      "outputs": [
        {
          "name": "",
          "type": "uint256"
        }
      ],
      "payable": false,
      "stateMutability": "view",
      "type": "function"
    },
    {
      "constant": false,
      "inputs": [
        {
          "name": "num",
          "type": "uint256"
        }
      ],
      "name": "setRandomFactor",
      "outputs": [],
      "payable": false,
      "stateMutability": "nonpayable",
      "type": "function"
    },
    {
      "constant": true,
      "inputs": [],
      "name": "getTotalUserBets",
      "outputs": [
        {
          "name": "",
          "type": "uint256"
        }
      ],
      "payable": false,
      "stateMutability": "view",
      "type": "function"
    },
    {
      "constant": true,
      "inputs": [],
      "name": "getTotalUserWin",
      "outputs": [
        {
          "name": "",
          "type": "uint256"
        }
      ],
      "payable": false,
      "stateMutability": "view",
      "type": "function"
    },
    {
      "constant": false,
      "inputs": [
        {
          "name": "num",
          "type": "uint256"
        }
      ],
      "name": "setGameMaxBet",
      "outputs": [],
      "payable": false,
      "stateMutability": "nonpayable",
      "type": "function"
    },
    {
      "constant": false,
      "inputs": [
        {
          "name": "num",
          "type": "uint256"
        }
      ],
      "name": "setGameMinBet",
      "outputs": [],
      "payable": false,
      "stateMutability": "nonpayable",
      "type": "function"
    },
    {
      "constant": false,
      "inputs": [
        {
          "name": "num",
          "type": "uint256"
        }
      ],
      "name": "setProfitWinRate",
      "outputs": [],
      "payable": false,
      "stateMutability": "nonpayable",
      "type": "function"
    },
    {
      "constant": false,
      "inputs": [
        {
          "name": "bet_number",
          "type": "uint256"
        },
        {
          "name": "amount",
          "type": "uint256"
        }
      ],
      "name": "userBet",
      "outputs": [],
      "payable": true,
      "stateMutability": "payable",
      "type": "function"
    },
    {
      "constant": false,
      "inputs": [
        {
          "name": "amount",
          "type": "uint256"
        }
      ],
      "name": "withdraw",
      "outputs": [],
      "payable": false,
      "stateMutability": "nonpayable",
      "type": "function"
    }
  ],
  "bytecode": "0x608060405234801561001057600080fd5b50336000806101000a81548173ffffffffffffffffffffffffffffffffffffffff021916908373ffffffffffffffffffffffffffffffffffffffff1602179055506000809054906101000a900473ffffffffffffffffffffffffffffffffffffffff1673ffffffffffffffffffffffffffffffffffffffff16600073ffffffffffffffffffffffffffffffffffffffff167f8be0079c531659141344cd1fd0a4f28419497f9722a3daafe3b4186f6b6457e060405160405180910390a36100ee600a4261011664010000000002610d4b179091906401000000009004565b600281905550633b9aca00600681905550620f4240600781905550604660088190555061013b565b600080821415151561012757600080fd5b818381151561013257fe5b06905092915050565b610e968061014a6000396000f3006080604052600436106100fc576000357c0100000000000000000000000000000000000000000000000000000000900463ffffffff16806322af00fa146100fe57806328a5190c1461018e5780632e1a7d4d146101b957806338766a6c146101e6578063513603af1461021157806359b63f6c1461023c578063715018a614610269578063831bc058146102805780638da5cb5b146102ab5780638f32d59b146103025780639c96990914610331578063a24c25d41461035c578063ad683e9e14610389578063baf342e2146103b3578063bbf71566146103e0578063d504cb651461040b578063eaf5a7df14610436578063f2fde38b14610463575b005b34801561010a57600080fd5b50610129600480360381019080803590602001909291905050506104a6565b604051808773ffffffffffffffffffffffffffffffffffffffff1673ffffffffffffffffffffffffffffffffffffffff168152602001868152602001858152602001848152602001838152602001828152602001965050505050505060405180910390f35b34801561019a57600080fd5b506101a3610502565b6040518082815260200191505060405180910390f35b3480156101c557600080fd5b506101e46004803603810190808035906020019092919050505061051f565b005b3480156101f257600080fd5b506101fb6105a9565b6040518082815260200191505060405180910390f35b34801561021d57600080fd5b506102266105af565b6040518082815260200191505060405180910390f35b34801561024857600080fd5b50610267600480360381019080803590602001909291905050506105b5565b005b34801561027557600080fd5b5061027e6105d2565b005b34801561028c57600080fd5b506102956106a4565b6040518082815260200191505060405180910390f35b3480156102b757600080fd5b506102c06106c1565b604051808273ffffffffffffffffffffffffffffffffffffffff1673ffffffffffffffffffffffffffffffffffffffff16815260200191505060405180910390f35b34801561030e57600080fd5b506103176106ea565b604051808215151515815260200191505060405180910390f35b34801561033d57600080fd5b50610346610741565b6040518082815260200191505060405180910390f35b34801561036857600080fd5b506103876004803603810190808035906020019092919050505061075e565b005b6103b1600480360381019080803590602001909291908035906020019092919050505061077b565b005b3480156103bf57600080fd5b506103de60048036038101908080359060200190929190505050610c5e565b005b3480156103ec57600080fd5b506103f5610c7b565b6040518082815260200191505060405180910390f35b34801561041757600080fd5b50610420610c81565b6040518082815260200191505060405180910390f35b34801561044257600080fd5b5061046160048036038101908080359060200190929190505050610c87565b005b34801561046f57600080fd5b506104a4600480360381019080803573ffffffffffffffffffffffffffffffffffffffff169060200190929190505050610ca4565b005b60016020528060005260406000206000915090508060000160009054906101000a900473ffffffffffffffffffffffffffffffffffffffff16908060010154908060020154908060030154908060040154908060050154905086565b600061050c6106ea565b151561051757600080fd5b600254905090565b6105276106ea565b151561053257600080fd5b3073ffffffffffffffffffffffffffffffffffffffff1631811115151561055857600080fd5b6105606106c1565b73ffffffffffffffffffffffffffffffffffffffff166108fc829081150290604051600060405180830381858888f193505050501580156105a5573d6000803e3d6000fd5b5050565b60075481565b60085481565b6105bd6106ea565b15156105c857600080fd5b8060078190555050565b6105da6106ea565b15156105e557600080fd5b600073ffffffffffffffffffffffffffffffffffffffff166000809054906101000a900473ffffffffffffffffffffffffffffffffffffffff1673ffffffffffffffffffffffffffffffffffffffff167f8be0079c531659141344cd1fd0a4f28419497f9722a3daafe3b4186f6b6457e060405160405180910390a360008060006101000a81548173ffffffffffffffffffffffffffffffffffffffff021916908373ffffffffffffffffffffffffffffffffffffffff160217905550565b60006106ae6106ea565b15156106b957600080fd5b600454905090565b60008060009054906101000a900473ffffffffffffffffffffffffffffffffffffffff16905090565b60008060009054906101000a900473ffffffffffffffffffffffffffffffffffffffff1673ffffffffffffffffffffffffffffffffffffffff163373ffffffffffffffffffffffffffffffffffffffff1614905090565b600061074b6106ea565b151561075657600080fd5b600354905090565b6107666106ea565b151561077157600080fd5b8060088190555050565b600080600080843410156107f7576040517f08c379a000000000000000000000000000000000000000000000000000000000815260040180806020018281038252601c8152602001807f596f75206e6f7420656e6f756768205452582070726f76696465642e0000000081525060200191505060405180910390fd5b600754851015610895576040517f08c379a00000000000000000000000000000000000000000000000000000000081526004018080602001828103825260398152602001807f596f7520706c616365207468652062657420616d6f756e7420736d616c6c657281526020017f207468616e20746865206d696e696d756d20616d6f756e742e0000000000000081525060400191505060405180910390fd5b600654851115610933576040517f08c379a00000000000000000000000000000000000000000000000000000000081526004018080602001828103825260378152602001807f596f7520736574207468652062657420616d6f756e742067726561746572207481526020017f68616e20746865206d6178696d756d20616d6f756e742e00000000000000000081525060400191505060405180910390fd5b3073ffffffffffffffffffffffffffffffffffffffff163161096060085487610cc390919063ffffffff16565b11156109fa576040517f08c379a00000000000000000000000000000000000000000000000000000000081526004018080602001828103825260268152602001807f5468697320636f6e7472616374206e6f7420656e6f756768205452582070726f81526020017f76696465642e000000000000000000000000000000000000000000000000000081525060400191505060405180910390fd5b610a0f85600354610d0190919063ffffffff16565b600381905550610a1d610d22565b9350610a5a610a496001610a3b600a88610d4b90919063ffffffff16565b610d0190919063ffffffff16565b600254610d0190919063ffffffff16565b600281905550610a74606485610d4b90919063ffffffff16565b92506000915085831415610afc57610a9760085486610cc390919063ffffffff16565b9150610aae82600454610d0190919063ffffffff16565b6004819055503373ffffffffffffffffffffffffffffffffffffffff166108fc839081150290604051600060405180830381858888f19350505050158015610afa573d6000803e3d6000fd5b505b60c0604051908101604052803373ffffffffffffffffffffffffffffffffffffffff1681526020018781526020018681526020018481526020018381526020014281525060016000600554815260200190815260200160002060008201518160000160006101000a81548173ffffffffffffffffffffffffffffffffffffffff021916908373ffffffffffffffffffffffffffffffffffffffff1602179055506020820151816001015560408201518160020155606082015181600301556080820151816004015560a0820151816005015590505060055490503373ffffffffffffffffffffffffffffffffffffffff167f47619f0695d43cb008b9d6745890275c5fdb3bf7ad2683ce5cfcf45f7fbbb6d78787868686604051808681526020018581526020018481526020018381526020018281526020019550505050505060405180910390a2600560008154809291906001019190505550505050505050565b610c666106ea565b1515610c7157600080fd5b8060028190555050565b60065481565b60055481565b610c8f6106ea565b1515610c9a57600080fd5b8060068190555050565b610cac6106ea565b1515610cb757600080fd5b610cc081610d70565b50565b6000806000841415610cd85760009150610cfa565b8284029050828482811515610ce957fe5b04141515610cf657600080fd5b8091505b5092915050565b6000808284019050838110151515610d1857600080fd5b8091505092915050565b6000600254610d3b606442610d4b90919063ffffffff16565b6001430303406001900401905090565b6000808214151515610d5c57600080fd5b8183811515610d6757fe5b06905092915050565b600073ffffffffffffffffffffffffffffffffffffffff168173ffffffffffffffffffffffffffffffffffffffff1614151515610dac57600080fd5b8073ffffffffffffffffffffffffffffffffffffffff166000809054906101000a900473ffffffffffffffffffffffffffffffffffffffff1673ffffffffffffffffffffffffffffffffffffffff167f8be0079c531659141344cd1fd0a4f28419497f9722a3daafe3b4186f6b6457e060405160405180910390a3806000806101000a81548173ffffffffffffffffffffffffffffffffffffffff021916908373ffffffffffffffffffffffffffffffffffffffff160217905550505600a165627a7a7230582051574642146ad70e308731d736031076430f892099358c6849fa27329ec191b10029",
  "source": "pragma solidity ^0.4.23;\r\n\r\nimport \"./SafeMath.sol\";\r\nimport \"./Ownable.sol\";\r\n\r\n// This is Bingo contract.\r\ncontract Bingo is Ownable {\r\n\tusing SafeMath for uint;\r\n\r\n\tstruct Bet{\r\n\t\taddress player;\r\n\t\tuint bet_number;\r\n\t\tuint bet_amount;\r\n\t\tuint result_number;\r\n\t\tuint win_amount; \r\n\t\tuint time;\r\n\t}\r\n    mapping(uint => Bet) public bets;\r\n\r\n\tuint private randomFactor;\r\n\tuint private totalUserBets;\r\n\tuint private totalUserWin;\r\n\r\n\tuint public currentBet;\r\n\tuint public gameMaxBet;\r\n\tuint public gameMinBet;\r\n\tuint public profitWinRate;\r\n\r\n\tevent UserBet(address indexed player, uint bet_number, uint bet_amount, uint result_number, uint win_amount, uint id);\r\n\r\n\t//contract constructor\r\n\tconstructor() public {\r\n\t\trandomFactor = now.mod(10);\r\n\t\tgameMaxBet = 1000000000;//1000 TRX\r\n\t\tgameMinBet = 1000000;//1 TRX\r\n\t\tprofitWinRate = 70;// 1x70 (winner receives x70 of the bet)\r\n\t}\r\n\r\n\tfunction getRandomFactor() public onlyOwner view returns(uint) {\r\n        return randomFactor;\r\n\t}\r\n\r\n\tfunction setRandomFactor(uint num) public onlyOwner {\r\n        randomFactor = num;\r\n\t}\r\n\r\n\tfunction getTotalUserBets() public onlyOwner view returns(uint) {\r\n        return totalUserBets;\r\n\t}\r\n\r\n\tfunction getTotalUserWin() public onlyOwner view returns(uint) {\r\n        return totalUserWin;\r\n\t}\r\n\r\n\r\n\tfunction setGameMaxBet(uint num) public onlyOwner {\r\n        gameMaxBet = num;\r\n\t}\r\n\r\n\tfunction setGameMinBet(uint num) public onlyOwner {\r\n        gameMinBet = num;\r\n\t}\r\n\r\n\tfunction setProfitWinRate(uint num) public onlyOwner {\r\n        profitWinRate = num;\r\n\t}\r\n\r\n\t//userBet\r\n\tfunction userBet(uint bet_number, uint amount) public payable {\r\n\t\tif (msg.value < amount) revert(\"You not enough TRX provided.\");\r\n\t\tif (amount < gameMinBet) revert(\"You place the bet amount smaller than the minimum amount.\");\r\n\t\tif (amount > gameMaxBet) revert(\"You set the bet amount greater than the maximum amount.\");\r\n\t\tif (amount.mul(profitWinRate) > address(this).balance) revert(\"This contract not enough TRX provided.\");\r\n        totalUserBets = totalUserBets.add(amount);\r\n\t\tuint random_number = random_uint();\r\n\t\trandomFactor = randomFactor.add(random_number.mod(10).add(1));\r\n\t\tuint result_number = random_number.mod(100);\r\n\t\tuint win_amount = 0;\r\n\t\tif(result_number == bet_number){\r\n\t\t\twin_amount = amount.mul(profitWinRate);\r\n\t\t\ttotalUserWin = totalUserWin.add(win_amount);\r\n\t\t\tmsg.sender.transfer(win_amount);\r\n\t\t}\r\n\t\tbets[currentBet] = Bet(\r\n\t\t{\r\n\t\t\tplayer: msg.sender,\r\n\t\t\tbet_number: bet_number,\r\n\t\t\tbet_amount: amount,\r\n\t\t\tresult_number: result_number,\r\n\t\t\twin_amount: win_amount,\r\n\t\t\ttime: now\r\n\t\t});\r\n        uint id = currentBet;\r\n\t\temit UserBet(msg.sender, bet_number, amount, result_number, win_amount, id);\r\n\t\tcurrentBet++;\r\n\t}\r\n\t//random_uint\r\n\tfunction random_uint() private view returns (uint256) {\r\n       \treturn uint256(blockhash(block.number-1-block.timestamp.mod(100))) + randomFactor;\r\n    }\r\n\r\n\t//withdraw\r\n\tfunction withdraw(uint amount) public onlyOwner {\r\n        require(amount <= address(this).balance);\r\n        owner().transfer(amount);\r\n    }\r\n\r\n    function() public payable{}\r\n}\r\n",
  "sourcePath": "C:\\wamp64\\www\\Working\\Blockchain\\Tron\\Bingo\\contracts\\Bingo.sol",
  "compiler": {
    "name": "solc",
    "version": "0.4.24-develop.2018.8.28+commit.3ba0cdec.mod.Emscripten.clang"
  },
  "schemaVersion": "2.0.1",
  "updatedAt": "2018-12-29T17:07:55.455Z"
}